{
  "_format": "hh-sol-artifact-1",
  "contractName": "BunnyBundles",
  "sourceName": "contracts/BunnyBundles.sol",
  "abi": [
    {
      "inputs": [
        {
          "internalType": "contract IVerifier",
          "name": "_verifier",
          "type": "address"
        },
        {
          "internalType": "address",
          "name": "_feelessToken",
          "type": "address"
        }
      ],
      "stateMutability": "nonpayable",
      "type": "constructor"
    },
    {
      "anonymous": false,
      "inputs": [
        {
          "indexed": true,
          "internalType": "bytes32",
          "name": "root",
          "type": "bytes32"
        },
        {
          "indexed": false,
          "internalType": "address",
          "name": "depositFor",
          "type": "address"
        },
        {
          "indexed": false,
          "internalType": "uint256",
          "name": "timestamp",
          "type": "uint256"
        },
        {
          "indexed": false,
          "internalType": "uint256",
          "name": "totalValue",
          "type": "uint256"
        },
        {
          "indexed": false,
          "internalType": "uint256",
          "name": "size",
          "type": "uint256"
        },
        {
          "indexed": false,
          "internalType": "uint256",
          "name": "fee",
          "type": "uint256"
        }
      ],
      "name": "DepositETH",
      "type": "event"
    },
    {
      "anonymous": false,
      "inputs": [
        {
          "indexed": true,
          "internalType": "bytes32",
          "name": "root",
          "type": "bytes32"
        },
        {
          "indexed": false,
          "internalType": "address",
          "name": "depositFor",
          "type": "address"
        },
        {
          "indexed": false,
          "internalType": "uint256",
          "name": "timestamp",
          "type": "uint256"
        },
        {
          "indexed": false,
          "internalType": "uint256",
          "name": "totalValue",
          "type": "uint256"
        },
        {
          "indexed": false,
          "internalType": "uint256",
          "name": "size",
          "type": "uint256"
        },
        {
          "indexed": false,
          "internalType": "uint256",
          "name": "fee",
          "type": "uint256"
        },
        {
          "indexed": false,
          "internalType": "address",
          "name": "token",
          "type": "address"
        }
      ],
      "name": "DepositToken",
      "type": "event"
    },
    {
      "anonymous": false,
      "inputs": [
        {
          "indexed": false,
          "internalType": "address",
          "name": "from",
          "type": "address"
        },
        {
          "indexed": false,
          "internalType": "address",
          "name": "to",
          "type": "address"
        },
        {
          "indexed": false,
          "internalType": "bytes32",
          "name": "root",
          "type": "bytes32"
        },
        {
          "indexed": false,
          "internalType": "bytes32",
          "name": "commitment",
          "type": "bytes32"
        }
      ],
      "name": "WithdrawFromBundle",
      "type": "event"
    },
    {
      "inputs": [],
      "name": "FEE_DIVIDER",
      "outputs": [
        {
          "internalType": "uint256",
          "name": "",
          "type": "uint256"
        }
      ],
      "stateMutability": "view",
      "type": "function"
    },
    {
      "inputs": [],
      "name": "_owner",
      "outputs": [
        {
          "internalType": "address payable",
          "name": "",
          "type": "address"
        }
      ],
      "stateMutability": "view",
      "type": "function"
    },
    {
      "inputs": [
        {
          "internalType": "uint256",
          "name": "",
          "type": "uint256"
        }
      ],
      "name": "addredRoots",
      "outputs": [
        {
          "internalType": "bytes32",
          "name": "",
          "type": "bytes32"
        }
      ],
      "stateMutability": "view",
      "type": "function"
    },
    {
      "inputs": [
        {
          "internalType": "bytes32",
          "name": "",
          "type": "bytes32"
        }
      ],
      "name": "bundles",
      "outputs": [
        {
          "internalType": "address",
          "name": "creator",
          "type": "address"
        },
        {
          "internalType": "uint256",
          "name": "createdDate",
          "type": "uint256"
        },
        {
          "internalType": "uint256",
          "name": "size",
          "type": "uint256"
        },
        {
          "internalType": "uint256",
          "name": "totalValue",
          "type": "uint256"
        },
        {
          "internalType": "uint256",
          "name": "valueLeft",
          "type": "uint256"
        },
        {
          "internalType": "uint256",
          "name": "bunnyNotesLeft",
          "type": "uint256"
        },
        {
          "internalType": "bool",
          "name": "usesToken",
          "type": "bool"
        },
        {
          "internalType": "contract IERC20",
          "name": "token",
          "type": "address"
        }
      ],
      "stateMutability": "view",
      "type": "function"
    },
    {
      "inputs": [
        {
          "internalType": "uint256",
          "name": "amount",
          "type": "uint256"
        }
      ],
      "name": "calculateFee",
      "outputs": [
        {
          "internalType": "uint256",
          "name": "fee",
          "type": "uint256"
        }
      ],
      "stateMutability": "pure",
      "type": "function"
    },
    {
      "inputs": [
        {
          "internalType": "bytes32",
          "name": "root",
          "type": "bytes32"
        },
        {
          "internalType": "uint256",
          "name": "totalValue",
          "type": "uint256"
        },
        {
          "internalType": "uint256",
          "name": "size",
          "type": "uint256"
        }
      ],
      "name": "depositEth",
      "outputs": [],
      "stateMutability": "payable",
      "type": "function"
    },
    {
      "inputs": [
        {
          "internalType": "bytes32",
          "name": "root",
          "type": "bytes32"
        },
        {
          "internalType": "uint256",
          "name": "totalValue",
          "type": "uint256"
        },
        {
          "internalType": "uint256",
          "name": "size",
          "type": "uint256"
        },
        {
          "internalType": "address",
          "name": "token",
          "type": "address"
        }
      ],
      "name": "depositToken",
      "outputs": [],
      "stateMutability": "nonpayable",
      "type": "function"
    },
    {
      "inputs": [],
      "name": "feelessToken",
      "outputs": [
        {
          "internalType": "address",
          "name": "",
          "type": "address"
        }
      ],
      "stateMutability": "view",
      "type": "function"
    },
    {
      "inputs": [
        {
          "internalType": "uint256",
          "name": "totalValue",
          "type": "uint256"
        },
        {
          "internalType": "uint256",
          "name": "size",
          "type": "uint256"
        }
      ],
      "name": "getNoteValue",
      "outputs": [
        {
          "internalType": "uint256",
          "name": "value",
          "type": "uint256"
        }
      ],
      "stateMutability": "pure",
      "type": "function"
    },
    {
      "inputs": [
        {
          "internalType": "bytes32",
          "name": "_nullifierHash",
          "type": "bytes32"
        },
        {
          "internalType": "bytes32",
          "name": "_root",
          "type": "bytes32"
        }
      ],
      "name": "isSpent",
      "outputs": [
        {
          "internalType": "bool",
          "name": "",
          "type": "bool"
        }
      ],
      "stateMutability": "view",
      "type": "function"
    },
    {
      "inputs": [
        {
          "internalType": "bytes32",
          "name": "",
          "type": "bytes32"
        },
        {
          "internalType": "bytes32",
          "name": "",
          "type": "bytes32"
        }
      ],
      "name": "nullifierHashes",
      "outputs": [
        {
          "internalType": "bool",
          "name": "",
          "type": "bool"
        }
      ],
      "stateMutability": "view",
      "type": "function"
    },
    {
      "inputs": [],
      "name": "rootIndex",
      "outputs": [
        {
          "internalType": "uint256",
          "name": "",
          "type": "uint256"
        }
      ],
      "stateMutability": "view",
      "type": "function"
    },
    {
      "inputs": [
        {
          "internalType": "address",
          "name": "newFeelesstoken",
          "type": "address"
        }
      ],
      "name": "setFeelessToken",
      "outputs": [],
      "stateMutability": "nonpayable",
      "type": "function"
    },
    {
      "inputs": [],
      "name": "verifier",
      "outputs": [
        {
          "internalType": "contract IVerifier",
          "name": "",
          "type": "address"
        }
      ],
      "stateMutability": "view",
      "type": "function"
    },
    {
      "inputs": [
        {
          "internalType": "uint256[8]",
          "name": "_proof",
          "type": "uint256[8]"
        },
        {
          "internalType": "bytes32",
          "name": "_nullifierHash",
          "type": "bytes32"
        },
        {
          "internalType": "bytes32",
          "name": "_commitment",
          "type": "bytes32"
        },
        {
          "internalType": "bytes32",
          "name": "_root",
          "type": "bytes32"
        },
        {
          "internalType": "address",
          "name": "_recipient",
          "type": "address"
        }
      ],
      "name": "withdraw",
      "outputs": [],
      "stateMutability": "nonpayable",
      "type": "function"
    }
  ],
  "bytecode": "0x60a060405234801561001057600080fd5b50604051620017cd380380620017cd8339810160408190526100319161007f565b6001600081815560609390931b6001600160601b0319166080528054336001600160a01b031991821617909155600280549091166001600160a01b03929092169190911790556006556100d0565b60008060408385031215610091578182fd5b825161009c816100b8565b60208401519092506100ad816100b8565b809150509250929050565b6001600160a01b03811681146100cd57600080fd5b50565b60805160601c6116d7620000f66000396000818161017701526108a601526116d76000f3fe6080604052600436106100e85760003560e01c80637d53e8911161008a57806399a5d7471161005957806399a5d74714610364578063abc327c514610384578063b2bdfa7b146103a4578063bed00e6c146103c457600080fd5b80637d53e891146102315780637e3b7088146102515780637e69819c1461028b57806393862c3b146102ab57600080fd5b80634be95b52116100c65780634be95b5214610199578063529dd5ea146101e457806363fb615d146101fa57806378d6ade41461021c57600080fd5b806315540f8c146100ed5780631631bb371461012d5780632b7ac3f314610165575b600080fd5b3480156100f957600080fd5b5061011a610108366004611478565b60056020526000908152604090205481565b6040519081526020015b60405180910390f35b34801561013957600080fd5b5060025461014d906001600160a01b031681565b6040516001600160a01b039091168152602001610124565b34801561017157600080fd5b5061014d7f000000000000000000000000000000000000000000000000000000000000000081565b3480156101a557600080fd5b506101d46101b4366004611490565b600360209081526000928352604080842090915290825290205460ff1681565b6040519015158152602001610124565b3480156101f057600080fd5b5061011a60065481565b34801561020657600080fd5b5061021a6102153660046114dc565b6103d7565b005b34801561022857600080fd5b5061011a606481565b34801561023d57600080fd5b5061021a61024c3660046113e6565b610662565b34801561025d57600080fd5b506101d461026c366004611490565b6000908152600360209081526040808320938352929052205460ff1690565b34801561029757600080fd5b5061011a6102a6366004611490565b6106eb565b3480156102b757600080fd5b506103186102c6366004611478565b600460208190526000918252604090912080546001820154600283015460038401549484015460058501546006909501546001600160a01b03948516969395929491929160ff82169161010090041688565b604080516001600160a01b03998a16815260208101989098528701959095526060860193909352608085019190915260a0840152151560c083015290911660e082015261010001610124565b34801561037057600080fd5b5061011a61037f366004611478565b6106fe565b34801561039057600080fd5b5061021a61039f366004611400565b610711565b3480156103b057600080fd5b5060015461014d906001600160a01b031681565b61021a6103d23660046114b1565b610c50565b6103df610eb0565b6000848152600460205260409020546001600160a01b0316156104495760405162461bcd60e51b815260206004820152600d60248201527f42756e646c65204578697374730000000000000000000000000000000000000060448201526064015b60405180910390fd5b600083116104995760405162461bcd60e51b815260206004820152601360248201527f496e76616c696420746f74616c2076616c7565000000000000000000000000006044820152606401610440565b600082116104e95760405162461bcd60e51b815260206004820152600c60248201527f496e76616c69642073697a6500000000000000000000000000000000000000006044820152606401610440565b6000848152600460208181526040808420805473ffffffffffffffffffffffffffffffffffffffff19163317815542600180830191909155600282018890556005808301899055600383018a9055948201899055600691820180546001600160a01b038916610100027fffffffffffffffffffffff000000000000000000000000000000000000000000909116178217905581548652939092528320879055805491929091610599908490611610565b90915550600090506105aa846106fe565b90506105c16001600160a01b038316333087610f0a565b6002546001600160a01b038381169116146105f2576001546105f2906001600160a01b038481169133911684610f0a565b6040805133815242602082015290810185905260608101849052608081018290526001600160a01b03831660a082015285907f22c4e06e896aa48d1f5041954e3c4815c774c7d7bb27fc8423c88f1eebef62f39060c00160405180910390a25061065c6001600055565b50505050565b6001546001600160a01b031633146106bc5760405162461bcd60e51b815260206004820152600a60248201527f4f6e6c79206f776e6572000000000000000000000000000000000000000000006044820152606401610440565b6002805473ffffffffffffffffffffffffffffffffffffffff19166001600160a01b0392909216919091179055565b60006106f78383610fbb565b9392505050565b600061070b826064610fbb565b92915050565b610719610eb0565b600082815260036020908152604080832087845290915290205460ff16156107835760405162461bcd60e51b815260206004820152600c60248201527f496e76616c6964206e6f746500000000000000000000000000000000000000006044820152606401610440565b6000828152600460205260409020546001600160a01b03166107e75760405162461bcd60e51b815260206004820152600c60248201527f556e7573656420726f6f742100000000000000000000000000000000000000006044820152606401610440565b600082815260046020819052604090912001546108465760405162461bcd60e51b815260206004820152600d60248201527f4e6f2076616c7565206c656674000000000000000000000000000000000000006044820152606401610440565b6000828152600460205260409020600501546108a45760405162461bcd60e51b815260206004820152600760248201527f4e6f206d6f7265000000000000000000000000000000000000000000000000006044820152606401610440565b7f00000000000000000000000000000000000000000000000000000000000000006001600160a01b0316635fe8c13b6040518060400160405280886000600881106108ff57634e487b7160e01b600052603260045260246000fd5b602002013581526020018860016008811061092a57634e487b7160e01b600052603260045260246000fd5b602002013590526040805160808101825289820135918101918252908190606082018b60036020020135815250815260200160405180604001604052808b60046008811061098857634e487b7160e01b600052603260045260246000fd5b602002013581526020018b6005600881106109b357634e487b7160e01b600052603260045260246000fd5b60200201359052905260408051808201909152808a6006602002013581526020018a6007600881106109f557634e487b7160e01b600052603260045260246000fd5b602002013581525060405180608001604052808a60001c81526020018960001c8152602001876001600160a01b031681526020018860001c8152506040518563ffffffff1660e01b8152600401610a4f9493929190611559565b602060405180830381600087803b158015610a6957600080fd5b505af1158015610a7d573d6000803e3d6000fd5b505050506040513d601f19601f82011682018060405250810190610aa19190611458565b610aed5760405162461bcd60e51b815260206004820152601660248201527f496e76616c69642057697468647261772070726f6f66000000000000000000006044820152606401610440565b60008281526003602090815260408083208784528252808320805460ff1916600190811790915585845260049092528220600501805491929091610b32908490611648565b909155505060008281526004602052604081206003810154600290910154610b5a91906106eb565b60008481526004602081905260409091200154909150610b7a9082610fc7565b6000848152600460208190526040909120908101919091556006015460ff1615610bce57600083815260046020526040902060060154610bc99061010090046001600160a01b03168383610fd3565b610bd8565b610bd8828261101c565b6000838152600460209081526040918290205482516001600160a01b03918216815290851691810191909152908101849052606081018590527f54219009fdb1fc111f0258a06a51124286167f8494f147eaeb6861a51382eca99060800160405180910390a150610c496001600055565b5050505050565b610c58610eb0565b6000838152600460205260409020546001600160a01b031615610cbd5760405162461bcd60e51b815260206004820152600d60248201527f42756e646c6520657869737473000000000000000000000000000000000000006044820152606401610440565b60008211610d0d5760405162461bcd60e51b815260206004820152601260248201527f496e76616c696420746f74616c56616c756500000000000000000000000000006044820152606401610440565b60008111610d5d5760405162461bcd60e51b815260206004820152600c60248201527f496e76616c69642053697a6500000000000000000000000000000000000000006044820152606401610440565b6000610d68836106fe565b9050610d748382611135565b3414610dc25760405162461bcd60e51b815260206004820152600d60248201527f496e76616c69642076616c7565000000000000000000000000000000000000006044820152606401610440565b6000848152600460208181526040808420805473ffffffffffffffffffffffffffffffffffffffff19163317815542600180830191909155600282018890556005808301899055600383018a90559190940188905560068054865292528320879055805491929091610e35908490611610565b9091555050600154610e50906001600160a01b03168261101c565b60408051338152426020820152908101849052606081018390526080810182905284907faa2a3b50fc79a876066c944bfdc640f58c883f12119d683950ec5471bbc3e8a59060a00160405180910390a250610eab6001600055565b505050565b60026000541415610f035760405162461bcd60e51b815260206004820152601f60248201527f5265656e7472616e637947756172643a207265656e7472616e742063616c6c006044820152606401610440565b6002600055565b6040516001600160a01b038085166024830152831660448201526064810182905261065c9085907f23b872dd00000000000000000000000000000000000000000000000000000000906084015b60408051601f198184030181529190526020810180517bffffffffffffffffffffffffffffffffffffffffffffffffffffffff167fffffffff0000000000000000000000000000000000000000000000000000000090931692909217909152611141565b60006106f78284611628565b60006106f78284611648565b6040516001600160a01b038316602482015260448101829052610eab9084907fa9059cbb0000000000000000000000000000000000000000000000000000000090606401610f57565b8047101561106c5760405162461bcd60e51b815260206004820152601d60248201527f416464726573733a20696e73756666696369656e742062616c616e63650000006044820152606401610440565b6000826001600160a01b03168260405160006040518083038185875af1925050503d80600081146110b9576040519150601f19603f3d011682016040523d82523d6000602084013e6110be565b606091505b5050905080610eab5760405162461bcd60e51b815260206004820152603a60248201527f416464726573733a20756e61626c6520746f2073656e642076616c75652c207260448201527f6563697069656e74206d617920686176652072657665727465640000000000006064820152608401610440565b60006106f78284611610565b6000611196826040518060400160405280602081526020017f5361666545524332303a206c6f772d6c6576656c2063616c6c206661696c6564815250856001600160a01b03166112269092919063ffffffff16565b805190915015610eab57808060200190518101906111b49190611458565b610eab5760405162461bcd60e51b815260206004820152602a60248201527f5361666545524332303a204552433230206f7065726174696f6e20646964206e60448201527f6f742073756363656564000000000000000000000000000000000000000000006064820152608401610440565b6060611235848460008561123d565b949350505050565b6060824710156112b55760405162461bcd60e51b815260206004820152602660248201527f416464726573733a20696e73756666696369656e742062616c616e636520666f60448201527f722063616c6c00000000000000000000000000000000000000000000000000006064820152608401610440565b600080866001600160a01b031685876040516112d1919061153d565b60006040518083038185875af1925050503d806000811461130e576040519150601f19603f3d011682016040523d82523d6000602084013e611313565b606091505b50915091506113248783838761132f565b979650505050505050565b6060831561139b578251611394576001600160a01b0385163b6113945760405162461bcd60e51b815260206004820152601d60248201527f416464726573733a2063616c6c20746f206e6f6e2d636f6e74726163740000006044820152606401610440565b5081611235565b61123583838151156113b05781518083602001fd5b8060405162461bcd60e51b815260040161044091906115dd565b80356001600160a01b03811681146113e157600080fd5b919050565b6000602082840312156113f7578081fd5b6106f7826113ca565b60008060008060006101808688031215611418578081fd5b610100860187811115611429578182fd5b8695503593506101208501359250610140850135915061144c61016086016113ca565b90509295509295909350565b600060208284031215611469578081fd5b815180151581146106f7578182fd5b600060208284031215611489578081fd5b5035919050565b600080604083850312156114a2578182fd5b50508035926020909101359150565b6000806000606084860312156114c5578283fd5b505081359360208301359350604090920135919050565b600080600080608085870312156114f1578384fd5b84359350602085013592506040850135915061150f606086016113ca565b905092959194509250565b8060005b600281101561065c57815184526020938401939091019060010161151e565b6000825161154f81846020870161165f565b9190910192915050565b6101808101611568828761151a565b60408083018660005b60028110156115985761158583835161151a565b9183019160209190910190600101611571565b505050506115a960c083018561151a565b61010082018360005b60048110156115d15781518352602092830192909101906001016115b2565b50505095945050505050565b60208152600082518060208401526115fc81604085016020870161165f565b601f01601f19169190910160400192915050565b600082198211156116235761162361168b565b500190565b60008261164357634e487b7160e01b81526012600452602481fd5b500490565b60008282101561165a5761165a61168b565b500390565b60005b8381101561167a578181015183820152602001611662565b8381111561065c5750506000910152565b634e487b7160e01b600052601160045260246000fdfea2646970667358221220e761e190247aee4140b82faa396d4a52552d51f9b83fa8a935104ec50eb61c0064736f6c63430008040033",
  "linkReferences": {},
  "deployedLinkReferences": {}
}