{
  "_format": "hh-sol-artifact-1",
  "contractName": "BunnyNotes",
  "sourceName": "contracts/BunnyNotes.sol",
  "abi": [
    {
      "inputs": [
        {
          "internalType": "contract IVerifier",
          "name": "_verifier",
          "type": "address"
        },
        {
          "internalType": "address",
          "name": "_feelessToken",
          "type": "address"
        }
      ],
      "stateMutability": "nonpayable",
      "type": "constructor"
    },
    {
      "anonymous": false,
      "inputs": [
        {
          "indexed": true,
          "internalType": "bytes32",
          "name": "commitment",
          "type": "bytes32"
        },
        {
          "indexed": false,
          "internalType": "address",
          "name": "depositFor",
          "type": "address"
        },
        {
          "indexed": false,
          "internalType": "uint256",
          "name": "timestamp",
          "type": "uint256"
        },
        {
          "indexed": false,
          "internalType": "uint256",
          "name": "denomination",
          "type": "uint256"
        },
        {
          "indexed": false,
          "internalType": "uint256",
          "name": "fee",
          "type": "uint256"
        }
      ],
      "name": "DepositETH",
      "type": "event"
    },
    {
      "anonymous": false,
      "inputs": [
        {
          "indexed": true,
          "internalType": "bytes32",
          "name": "commitment",
          "type": "bytes32"
        },
        {
          "indexed": false,
          "internalType": "address",
          "name": "depositFor",
          "type": "address"
        },
        {
          "indexed": false,
          "internalType": "uint256",
          "name": "timestamp",
          "type": "uint256"
        },
        {
          "indexed": false,
          "internalType": "uint256",
          "name": "amount",
          "type": "uint256"
        },
        {
          "indexed": false,
          "internalType": "uint256",
          "name": "fee",
          "type": "uint256"
        },
        {
          "indexed": false,
          "internalType": "address",
          "name": "token",
          "type": "address"
        }
      ],
      "name": "DepositToken",
      "type": "event"
    },
    {
      "anonymous": false,
      "inputs": [
        {
          "indexed": false,
          "internalType": "address",
          "name": "from",
          "type": "address"
        },
        {
          "indexed": false,
          "internalType": "address",
          "name": "to",
          "type": "address"
        },
        {
          "indexed": false,
          "internalType": "bytes32",
          "name": "commitment",
          "type": "bytes32"
        }
      ],
      "name": "WithdrawBunnyNote",
      "type": "event"
    },
    {
      "inputs": [],
      "name": "_owner",
      "outputs": [
        {
          "internalType": "address payable",
          "name": "",
          "type": "address"
        }
      ],
      "stateMutability": "view",
      "type": "function"
    },
    {
      "inputs": [
        {
          "internalType": "uint256",
          "name": "denomination",
          "type": "uint256"
        }
      ],
      "name": "calculateFee",
      "outputs": [
        {
          "internalType": "uint256",
          "name": "fee",
          "type": "uint256"
        }
      ],
      "stateMutability": "pure",
      "type": "function"
    },
    {
      "inputs": [
        {
          "internalType": "bytes32",
          "name": "",
          "type": "bytes32"
        }
      ],
      "name": "commitments",
      "outputs": [
        {
          "internalType": "bool",
          "name": "used",
          "type": "bool"
        },
        {
          "internalType": "address",
          "name": "creator",
          "type": "address"
        },
        {
          "internalType": "address",
          "name": "recipient",
          "type": "address"
        },
        {
          "internalType": "uint256",
          "name": "createdDate",
          "type": "uint256"
        },
        {
          "internalType": "uint256",
          "name": "spentDate",
          "type": "uint256"
        },
        {
          "internalType": "bool",
          "name": "usesToken",
          "type": "bool"
        },
        {
          "internalType": "contract IERC20",
          "name": "token",
          "type": "address"
        },
        {
          "internalType": "uint256",
          "name": "denomination",
          "type": "uint256"
        }
      ],
      "stateMutability": "view",
      "type": "function"
    },
    {
      "inputs": [
        {
          "internalType": "bytes32",
          "name": "_commitment",
          "type": "bytes32"
        },
        {
          "internalType": "uint256",
          "name": "denomination",
          "type": "uint256"
        }
      ],
      "name": "depositEth",
      "outputs": [],
      "stateMutability": "payable",
      "type": "function"
    },
    {
      "inputs": [
        {
          "internalType": "bytes32",
          "name": "_commitment",
          "type": "bytes32"
        },
        {
          "internalType": "uint256",
          "name": "denomination",
          "type": "uint256"
        },
        {
          "internalType": "address",
          "name": "token",
          "type": "address"
        }
      ],
      "name": "depositToken",
      "outputs": [],
      "stateMutability": "nonpayable",
      "type": "function"
    },
    {
      "inputs": [],
      "name": "feeDivider",
      "outputs": [
        {
          "internalType": "uint256",
          "name": "",
          "type": "uint256"
        }
      ],
      "stateMutability": "view",
      "type": "function"
    },
    {
      "inputs": [],
      "name": "feelessToken",
      "outputs": [
        {
          "internalType": "address",
          "name": "",
          "type": "address"
        }
      ],
      "stateMutability": "view",
      "type": "function"
    },
    {
      "inputs": [
        {
          "internalType": "bytes32",
          "name": "_nullifierHash",
          "type": "bytes32"
        }
      ],
      "name": "isSpent",
      "outputs": [
        {
          "internalType": "bool",
          "name": "",
          "type": "bool"
        }
      ],
      "stateMutability": "view",
      "type": "function"
    },
    {
      "inputs": [
        {
          "internalType": "bytes32",
          "name": "",
          "type": "bytes32"
        }
      ],
      "name": "nullifierHashes",
      "outputs": [
        {
          "internalType": "bool",
          "name": "",
          "type": "bool"
        }
      ],
      "stateMutability": "view",
      "type": "function"
    },
    {
      "inputs": [
        {
          "internalType": "address",
          "name": "newFeelesstoken",
          "type": "address"
        }
      ],
      "name": "setFeelessToken",
      "outputs": [],
      "stateMutability": "nonpayable",
      "type": "function"
    },
    {
      "inputs": [],
      "name": "verifier",
      "outputs": [
        {
          "internalType": "contract IVerifier",
          "name": "",
          "type": "address"
        }
      ],
      "stateMutability": "view",
      "type": "function"
    },
    {
      "inputs": [
        {
          "internalType": "uint256[8]",
          "name": "_proof",
          "type": "uint256[8]"
        },
        {
          "internalType": "bytes32",
          "name": "_nullifierHash",
          "type": "bytes32"
        },
        {
          "internalType": "bytes32",
          "name": "_commitment",
          "type": "bytes32"
        },
        {
          "internalType": "address",
          "name": "_recipient",
          "type": "address"
        }
      ],
      "name": "withdraw",
      "outputs": [],
      "stateMutability": "nonpayable",
      "type": "function"
    }
  ],
  "bytecode": "0x60a060405234801561001057600080fd5b5060405161147138038061147183398101604081905261002f91610077565b6001600081905560609290921b6001600160601b0319166080528154336001600160a01b031991821617909255600280549092166001600160a01b03919091161790556100c8565b60008060408385031215610089578182fd5b8251610094816100b0565b60208401519092506100a5816100b0565b809150509250929050565b6001600160a01b03811681146100c557600080fd5b50565b60805160601c6113846100ed6000396000818161017d015261086101526113846000f3fe6080604052600436106100c75760003560e01c8063839df94511610074578063b2bdfa7b1161004e578063b2bdfa7b146102d9578063bf30438a146102f9578063e5285dcc1461031957600080fd5b8063839df945146101d2578063917b546c1461029657806399a5d747146102b957600080fd5b80632b7ac3f3116100a55780632b7ac3f31461016b57806365b048041461019f5780637d53e891146101b257600080fd5b80631631bb37146100cc57806317cc915c146101095780631f1db12b14610149575b600080fd5b3480156100d857600080fd5b506002546100ec906001600160a01b031681565b6040516001600160a01b0390911681526020015b60405180910390f35b34801561011557600080fd5b5061013961012436600461117b565b60036020526000908152604090205460ff1681565b6040519015158152602001610100565b34801561015557600080fd5b506101696101643660046111b4565b610349565b005b34801561017757600080fd5b506100ec7f000000000000000000000000000000000000000000000000000000000000000081565b6101696101ad366004611193565b610526565b3480156101be57600080fd5b506101696101cd3660046110f4565b6106fe565b3480156101de57600080fd5b506102466101ed36600461117b565b600460208190526000918252604090912080546001820154600283015460038401549484015460059094015460ff808516966001600160a01b036101009687900481169795811696949591949282169392909104169088565b6040805198151589526001600160a01b0397881660208a01529587169588019590955260608701939093526080860191909152151560a085015290911660c083015260e082015261010001610100565b3480156102a257600080fd5b506102ab606481565b604051908152602001610100565b3480156102c557600080fd5b506102ab6102d436600461117b565b610787565b3480156102e557600080fd5b506001546100ec906001600160a01b031681565b34801561030557600080fd5b5061016961031436600461110e565b61079a565b34801561032557600080fd5b5061013961033436600461117b565b60009081526003602052604090205460ff1690565b610351610bcf565b60008381526004602052604090205460ff16156103b55760405162461bcd60e51b815260206004820152600f60248201527f5573656420636f6d6d69746d656e74000000000000000000000000000000000060448201526064015b60405180910390fd5b600082116104055760405162461bcd60e51b815260206004820152601460248201527f496e76616c69642064656e6f6d696e6174696f6e00000000000000000000000060448201526064016103ac565b6000838152600460208190526040822080543361010090810274ffffffffffffffffffffffffffffffffffffffffff199283161760019081178455426002850155938301805460059094018890556001600160a01b0387169091029290911691909117909117905561047683610787565b905061048d6001600160a01b038316333086610c29565b6002546001600160a01b038381169116146104be576001546104be906001600160a01b038481169133911684610c29565b60408051338152426020820152908101849052606081018290526001600160a01b038316608082015284907f8bb6c89708195cde85714372b67ba10588b9be3af6d680b64f00be661683b2109060a00160405180910390a2506105216001600055565b505050565b61052e610bcf565b60008281526004602052604090205460ff161561058d5760405162461bcd60e51b815260206004820152600f60248201527f5573656420636f6d6d69746d656e74000000000000000000000000000000000060448201526064016103ac565b600081116105dd5760405162461bcd60e51b815260206004820152601460248201527f496e76616c69642064656e6f6d696e6174696f6e00000000000000000000000060448201526064016103ac565b60006105e882610787565b90506105f481836112de565b34146106425760405162461bcd60e51b815260206004820152600d60248201527f496e76616c69642056616c75650000000000000000000000000000000000000060448201526064016103ac565b60008381526004602081905260409091208054600174ffffffffffffffffffffffffffffffffffffffffff1990911661010033021781178255426002830155918101805460ff19169055600501839055546106a6906001600160a01b031682610cda565b604080513381524260208201529081018390526060810182905283907f05c42e82c49d1d726f0c0ce6d578066d1d456811dd4201f3a3b0a3b589c850449060800160405180910390a2506106fa6001600055565b5050565b6001546001600160a01b031633146107585760405162461bcd60e51b815260206004820152600a60248201527f4f6e6c79206f776e65720000000000000000000000000000000000000000000060448201526064016103ac565b6002805473ffffffffffffffffffffffffffffffffffffffff19166001600160a01b0392909216919091179055565b6000610794826064610df3565b92915050565b6107a2610bcf565b60008381526003602052604090205460ff16156108015760405162461bcd60e51b815260206004820152601f60248201527f546865206e6f74652068617320616c7265616479206265656e207370656e740060448201526064016103ac565b60008281526004602052604090205460ff1661085f5760405162461bcd60e51b815260206004820152600c60248201527f556e75736564204e6f746521000000000000000000000000000000000000000060448201526064016103ac565b7f00000000000000000000000000000000000000000000000000000000000000006001600160a01b03166311479fea6040518060400160405280876000600881106108ba57634e487b7160e01b600052603260045260246000fd5b60200201358152602001876001600881106108e557634e487b7160e01b600052603260045260246000fd5b602002013590526040805160808101825288820135918101918252908190606082018a60036020020135815250815260200160405180604001604052808a60046008811061094357634e487b7160e01b600052603260045260246000fd5b602002013581526020018a60056008811061096e57634e487b7160e01b600052603260045260246000fd5b602002013590529052604080518082019091528089600660200201358152602001896007600881106109b057634e487b7160e01b600052603260045260246000fd5b602002013581525060405180606001604052808960001c81526020018860001c8152602001876001600160a01b03168152506040518563ffffffff1660e01b8152600401610a019493929190611227565b602060405180830381600087803b158015610a1b57600080fd5b505af1158015610a2f573d6000803e3d6000fd5b505050506040513d601f19601f82011682018060405250810190610a53919061115b565b610a9f5760405162461bcd60e51b815260206004820152601660248201527f496e76616c69642057697468647261772070726f6f660000000000000000000060448201526064016103ac565b60008381526003602081815260408084208054600160ff1990911681179091558685526004928390529320928301805473ffffffffffffffffffffffffffffffffffffffff19166001600160a01b0386161790554291830191909155015460ff1615610b3e5760008281526004602081905260409091206005810154910154610b39916101009091046001600160a01b0316908390610e06565b610b5b565b600082815260046020526040902060050154610b5b908290610cda565b6000828152600460209081526040918290205482516101009091046001600160a01b0390811682528416918101919091529081018390527f1b3dd12a3fb24765150649e2be7b94858b8fbf0852d05e927f9e888dc99e22bc9060600160405180910390a1610bc96001600055565b50505050565b60026000541415610c225760405162461bcd60e51b815260206004820152601f60248201527f5265656e7472616e637947756172643a207265656e7472616e742063616c6c0060448201526064016103ac565b6002600055565b6040516001600160a01b0380851660248301528316604482015260648101829052610bc99085907f23b872dd00000000000000000000000000000000000000000000000000000000906084015b60408051601f198184030181529190526020810180517bffffffffffffffffffffffffffffffffffffffffffffffffffffffff167fffffffff0000000000000000000000000000000000000000000000000000000090931692909217909152610e4f565b80471015610d2a5760405162461bcd60e51b815260206004820152601d60248201527f416464726573733a20696e73756666696369656e742062616c616e636500000060448201526064016103ac565b6000826001600160a01b03168260405160006040518083038185875af1925050503d8060008114610d77576040519150601f19603f3d011682016040523d82523d6000602084013e610d7c565b606091505b50509050806105215760405162461bcd60e51b815260206004820152603a60248201527f416464726573733a20756e61626c6520746f2073656e642076616c75652c207260448201527f6563697069656e74206d6179206861766520726576657274656400000000000060648201526084016103ac565b6000610dff8284611302565b9392505050565b6040516001600160a01b0383166024820152604481018290526105219084907fa9059cbb0000000000000000000000000000000000000000000000000000000090606401610c76565b6000610ea4826040518060400160405280602081526020017f5361666545524332303a206c6f772d6c6576656c2063616c6c206661696c6564815250856001600160a01b0316610f349092919063ffffffff16565b8051909150156105215780806020019051810190610ec2919061115b565b6105215760405162461bcd60e51b815260206004820152602a60248201527f5361666545524332303a204552433230206f7065726174696f6e20646964206e60448201527f6f7420737563636565640000000000000000000000000000000000000000000060648201526084016103ac565b6060610f438484600085610f4b565b949350505050565b606082471015610fc35760405162461bcd60e51b815260206004820152602660248201527f416464726573733a20696e73756666696369656e742062616c616e636520666f60448201527f722063616c6c000000000000000000000000000000000000000000000000000060648201526084016103ac565b600080866001600160a01b03168587604051610fdf919061120b565b60006040518083038185875af1925050503d806000811461101c576040519150601f19603f3d011682016040523d82523d6000602084013e611021565b606091505b50915091506110328783838761103d565b979650505050505050565b606083156110a95782516110a2576001600160a01b0385163b6110a25760405162461bcd60e51b815260206004820152601d60248201527f416464726573733a2063616c6c20746f206e6f6e2d636f6e747261637400000060448201526064016103ac565b5081610f43565b610f4383838151156110be5781518083602001fd5b8060405162461bcd60e51b81526004016103ac91906112ab565b80356001600160a01b03811681146110ef57600080fd5b919050565b600060208284031215611105578081fd5b610dff826110d8565b6000806000806101608587031215611124578283fd5b610100850186811115611135578384fd5b859450359250610120840135915061115061014085016110d8565b905092959194509250565b60006020828403121561116c578081fd5b81518015158114610dff578182fd5b60006020828403121561118c578081fd5b5035919050565b600080604083850312156111a5578182fd5b50508035926020909101359150565b6000806000606084860312156111c8578283fd5b83359250602084013591506111df604085016110d8565b90509250925092565b8060005b6002811015610bc95781518452602093840193909101906001016111ec565b6000825161121d818460208701611322565b9190910192915050565b610160810161123682876111e8565b60408083018660005b6002811015611266576112538383516111e8565b918301916020919091019060010161123f565b5050505061127760c08301856111e8565b61010082018360005b600381101561129f578151835260209283019290910190600101611280565b50505095945050505050565b60208152600082518060208401526112ca816040850160208701611322565b601f01601f19169190910160400192915050565b600082198211156112fd57634e487b7160e01b81526011600452602481fd5b500190565b60008261131d57634e487b7160e01b81526012600452602481fd5b500490565b60005b8381101561133d578181015183820152602001611325565b83811115610bc9575050600091015256fea264697066735822122074a19b9ec15d82efae586ceb1957dd086f04a305c3c6ef0050a960a25a1ebdca64736f6c63430008040033",
  "linkReferences": {},
  "deployedLinkReferences": {}
}